{
  "_format": "hh-sol-artifact-1",
  "contractName": "Cert",
  "sourceName": "contracts/Cert.sol",
  "abi": [
    {
      "inputs": [
        {
          "internalType": "address",
          "name": "_verifier",
          "type": "address"
        }
      ],
      "stateMutability": "nonpayable",
      "type": "constructor"
    },
    {
      "inputs": [],
      "name": "CallerIsNotTheGroupAdmin",
      "type": "error"
    },
    {
      "inputs": [],
      "name": "GroupAlreadyExists",
      "type": "error"
    },
    {
      "inputs": [],
      "name": "GroupDoesNotExist",
      "type": "error"
    },
    {
      "inputs": [],
      "name": "InvalidProof",
      "type": "error"
    },
    {
      "inputs": [],
      "name": "MaxNumberGroups",
      "type": "error"
    },
    {
      "inputs": [],
      "name": "UsingTheSameNullifier",
      "type": "error"
    },
    {
      "anonymous": false,
      "inputs": [
        {
          "indexed": true,
          "internalType": "uint256",
          "name": "groupId",
          "type": "uint256"
        },
        {
          "indexed": true,
          "internalType": "address",
          "name": "newAdmin",
          "type": "address"
        }
      ],
      "name": "GroupAdminUpdated",
      "type": "event"
    },
    {
      "anonymous": false,
      "inputs": [
        {
          "indexed": true,
          "internalType": "uint256",
          "name": "groupId",
          "type": "uint256"
        },
        {
          "indexed": false,
          "internalType": "string",
          "name": "description",
          "type": "string"
        }
      ],
      "name": "GroupCreated",
      "type": "event"
    },
    {
      "anonymous": false,
      "inputs": [
        {
          "indexed": true,
          "internalType": "uint256",
          "name": "groupId",
          "type": "uint256"
        },
        {
          "indexed": false,
          "internalType": "uint256",
          "name": "identityCommitment",
          "type": "uint256"
        },
        {
          "indexed": false,
          "internalType": "uint256",
          "name": "root",
          "type": "uint256"
        }
      ],
      "name": "MemberAdded",
      "type": "event"
    },
    {
      "anonymous": false,
      "inputs": [
        {
          "indexed": true,
          "internalType": "uint256",
          "name": "groupId",
          "type": "uint256"
        },
        {
          "indexed": false,
          "internalType": "uint256",
          "name": "identityCommitment",
          "type": "uint256"
        },
        {
          "indexed": false,
          "internalType": "uint256",
          "name": "root",
          "type": "uint256"
        }
      ],
      "name": "MemberRemoved",
      "type": "event"
    },
    {
      "anonymous": false,
      "inputs": [
        {
          "indexed": true,
          "internalType": "uint256",
          "name": "groupId",
          "type": "uint256"
        },
        {
          "indexed": false,
          "internalType": "uint256",
          "name": "index",
          "type": "uint256"
        },
        {
          "indexed": false,
          "internalType": "uint256",
          "name": "identityCommitment",
          "type": "uint256"
        },
        {
          "indexed": false,
          "internalType": "uint256",
          "name": "root",
          "type": "uint256"
        }
      ],
      "name": "MemberUpdated",
      "type": "event"
    },
    {
      "anonymous": false,
      "inputs": [
        {
          "indexed": true,
          "internalType": "uint256",
          "name": "groupId",
          "type": "uint256"
        },
        {
          "indexed": true,
          "internalType": "address",
          "name": "recipient",
          "type": "address"
        },
        {
          "indexed": false,
          "internalType": "uint256",
          "name": "grade",
          "type": "uint256"
        }
      ],
      "name": "ProofVerified",
      "type": "event"
    },
    {
      "inputs": [
        {
          "internalType": "uint256",
          "name": "gId",
          "type": "uint256"
        },
        {
          "internalType": "uint256",
          "name": "appId",
          "type": "uint256"
        }
      ],
      "name": "addMember",
      "outputs": [],
      "stateMutability": "nonpayable",
      "type": "function"
    },
    {
      "inputs": [
        {
          "internalType": "string",
          "name": "description",
          "type": "string"
        }
      ],
      "name": "createGroup",
      "outputs": [],
      "stateMutability": "nonpayable",
      "type": "function"
    },
    {
      "inputs": [
        {
          "internalType": "uint256",
          "name": "gId",
          "type": "uint256"
        }
      ],
      "name": "getDepth",
      "outputs": [
        {
          "internalType": "uint8",
          "name": "",
          "type": "uint8"
        }
      ],
      "stateMutability": "view",
      "type": "function"
    },
    {
      "inputs": [
        {
          "internalType": "uint256",
          "name": "gId",
          "type": "uint256"
        },
        {
          "internalType": "uint256",
          "name": "index",
          "type": "uint256"
        }
      ],
      "name": "getElement",
      "outputs": [
        {
          "internalType": "uint256",
          "name": "",
          "type": "uint256"
        }
      ],
      "stateMutability": "view",
      "type": "function"
    },
    {
      "inputs": [
        {
          "internalType": "uint256",
          "name": "gId",
          "type": "uint256"
        },
        {
          "internalType": "uint256",
          "name": "appId",
          "type": "uint256"
        }
      ],
      "name": "getIndexFromAppId",
      "outputs": [
        {
          "internalType": "uint256",
          "name": "",
          "type": "uint256"
        }
      ],
      "stateMutability": "view",
      "type": "function"
    },
    {
      "inputs": [
        {
          "internalType": "uint256",
          "name": "gId",
          "type": "uint256"
        }
      ],
      "name": "getNextIndex",
      "outputs": [
        {
          "internalType": "uint256",
          "name": "",
          "type": "uint256"
        }
      ],
      "stateMutability": "view",
      "type": "function"
    },
    {
      "inputs": [
        {
          "internalType": "uint256",
          "name": "gId",
          "type": "uint256"
        }
      ],
      "name": "getNumberOfLeaves",
      "outputs": [
        {
          "internalType": "uint256",
          "name": "",
          "type": "uint256"
        }
      ],
      "stateMutability": "view",
      "type": "function"
    },
    {
      "inputs": [
        {
          "internalType": "uint256",
          "name": "gId",
          "type": "uint256"
        }
      ],
      "name": "getRoot",
      "outputs": [
        {
          "internalType": "uint256",
          "name": "",
          "type": "uint256"
        }
      ],
      "stateMutability": "view",
      "type": "function"
    },
    {
      "inputs": [
        {
          "internalType": "uint256",
          "name": "gId",
          "type": "uint256"
        },
        {
          "internalType": "uint256",
          "name": "index",
          "type": "uint256"
        }
      ],
      "name": "getSiblingIndices",
      "outputs": [
        {
          "internalType": "uint256[10]",
          "name": "",
          "type": "uint256[10]"
        }
      ],
      "stateMutability": "view",
      "type": "function"
    },
    {
      "inputs": [
        {
          "internalType": "uint256",
          "name": "gId",
          "type": "uint256"
        },
        {
          "internalType": "uint256",
          "name": "index",
          "type": "uint256"
        }
      ],
      "name": "getSiblingPathIndices",
      "outputs": [
        {
          "internalType": "uint256[10]",
          "name": "",
          "type": "uint256[10]"
        }
      ],
      "stateMutability": "view",
      "type": "function"
    },
    {
      "inputs": [
        {
          "internalType": "uint256",
          "name": "gId",
          "type": "uint256"
        },
        {
          "internalType": "uint256",
          "name": "index",
          "type": "uint256"
        }
      ],
      "name": "getSiblings",
      "outputs": [
        {
          "internalType": "uint256[10]",
          "name": "",
          "type": "uint256[10]"
        }
      ],
      "stateMutability": "view",
      "type": "function"
    },
    {
      "inputs": [
        {
          "internalType": "uint256",
          "name": "",
          "type": "uint256"
        }
      ],
      "name": "groupAdmins",
      "outputs": [
        {
          "internalType": "address",
          "name": "",
          "type": "address"
        }
      ],
      "stateMutability": "view",
      "type": "function"
    },
    {
      "inputs": [
        {
          "internalType": "uint256",
          "name": "",
          "type": "uint256"
        }
      ],
      "name": "groupDescription",
      "outputs": [
        {
          "internalType": "string",
          "name": "",
          "type": "string"
        }
      ],
      "stateMutability": "view",
      "type": "function"
    },
    {
      "inputs": [
        {
          "internalType": "address",
          "name": "",
          "type": "address"
        },
        {
          "internalType": "uint256",
          "name": "",
          "type": "uint256"
        }
      ],
      "name": "proofs",
      "outputs": [
        {
          "internalType": "uint256",
          "name": "groupId",
          "type": "uint256"
        },
        {
          "internalType": "uint256",
          "name": "grade",
          "type": "uint256"
        },
        {
          "internalType": "string",
          "name": "ref",
          "type": "string"
        }
      ],
      "stateMutability": "view",
      "type": "function"
    },
    {
      "inputs": [
        {
          "internalType": "uint256",
          "name": "gId",
          "type": "uint256"
        },
        {
          "internalType": "uint256",
          "name": "appId",
          "type": "uint256"
        }
      ],
      "name": "removeMember",
      "outputs": [],
      "stateMutability": "nonpayable",
      "type": "function"
    },
    {
      "inputs": [
        {
          "internalType": "uint256",
          "name": "gId",
          "type": "uint256"
        },
        {
          "internalType": "address",
          "name": "newAdmin",
          "type": "address"
        }
      ],
      "name": "updateGroupAdmin",
      "outputs": [],
      "stateMutability": "nonpayable",
      "type": "function"
    },
    {
      "inputs": [
        {
          "internalType": "uint256",
          "name": "gId",
          "type": "uint256"
        },
        {
          "internalType": "uint256",
          "name": "index",
          "type": "uint256"
        },
        {
          "internalType": "uint256",
          "name": "newAppId",
          "type": "uint256"
        }
      ],
      "name": "updateMember",
      "outputs": [],
      "stateMutability": "nonpayable",
      "type": "function"
    },
    {
      "inputs": [],
      "name": "verifier",
      "outputs": [
        {
          "internalType": "contract CertVerifier",
          "name": "",
          "type": "address"
        }
      ],
      "stateMutability": "view",
      "type": "function"
    },
    {
      "inputs": [
        {
          "internalType": "uint256",
          "name": "gId",
          "type": "uint256"
        },
        {
          "internalType": "uint256",
          "name": "nullifier",
          "type": "uint256"
        },
        {
          "internalType": "uint256",
          "name": "minGrade",
          "type": "uint256"
        },
        {
          "internalType": "uint256[8]",
          "name": "proof",
          "type": "uint256[8]"
        },
        {
          "internalType": "address",
          "name": "recipient",
          "type": "address"
        },
        {
          "internalType": "string",
          "name": "ref",
          "type": "string"
        }
      ],
      "name": "verifyProof",
      "outputs": [],
      "stateMutability": "nonpayable",
      "type": "function"
    }
  ],
  "bytecode": "0x608060405260006007553480156200001657600080fd5b50604051620028a6380380620028a683398181016040528101906200003c9190620000ed565b806000806101000a81548173ffffffffffffffffffffffffffffffffffffffff021916908373ffffffffffffffffffffffffffffffffffffffff160217905550506200011f565b600080fd5b600073ffffffffffffffffffffffffffffffffffffffff82169050919050565b6000620000b58262000088565b9050919050565b620000c781620000a8565b8114620000d357600080fd5b50565b600081519050620000e781620000bc565b92915050565b60006020828403121562000106576200010562000083565b5b60006200011684828501620000d6565b91505092915050565b612777806200012f6000396000f3fe608060405234801561001057600080fd5b50600436106101215760003560e01c80636c4df7d4116100ad578063be913acb11610071578063be913acb14610352578063cb34f1da14610382578063dc2ddcae146103b2578063ec6a7d2d146103ce578063edb4691e146103fe57610121565b80636c4df7d41461026257806375e618c9146102925780639b24b3b0146102c2578063ac28eacd146102f2578063b9c78c2b1461032257610121565b806324623899116100f457806324623899146101be5780632b7ac3f3146101da5780633d856fff146101f8578063568ee8261461022a5780635cb2384c1461024657610121565b806302e1f878146101265780631642c980146101565780631783efc314610172578063223a44611461018e575b600080fd5b610140600480360381019061013b9190611a06565b61042e565b60405161014d9190611a42565b60405180910390f35b610170600480360381019061016b9190611b42565b61044e565b005b61018c60048036038101906101879190611bf4565b6106af565b005b6101a860048036038101906101a39190611a06565b610757565b6040516101b59190611ccd565b60405180910390f35b6101d860048036038101906101d39190611cef565b6107f7565b005b6101e26108a1565b6040516101ef9190611da1565b60405180910390f35b610212600480360381019061020d9190611dbc565b6108c5565b60405161022193929190611dfc565b60405180910390f35b610244600480360381019061023f9190611e3a565b610994565b005b610260600480360381019061025b9190611bf4565b610ac8565b005b61027c60048036038101906102779190611bf4565b610b70565b6040516102899190611a42565b60405180910390f35b6102ac60048036038101906102a79190611a06565b610b9f565b6040516102b99190611e96565b60405180910390f35b6102dc60048036038101906102d79190611a06565b610bcc565b6040516102e99190611a42565b60405180910390f35b61030c60048036038101906103079190611a06565b610bec565b6040516103199190611ec0565b60405180910390f35b61033c60048036038101906103379190611a06565b610c1f565b6040516103499190611a42565b60405180910390f35b61036c60048036038101906103679190611bf4565b610c3f565b6040516103799190611f86565b60405180910390f35b61039c60048036038101906103979190611bf4565b610d5c565b6040516103a99190611a42565b60405180910390f35b6103cc60048036038101906103c79190611fa2565b610e03565b005b6103e860048036038101906103e39190611bf4565b610f36565b6040516103f59190611f86565b60405180910390f35b61041860048036038101906104139190611bf4565b611053565b6040516104259190611f86565b60405180910390f35b600060016000838152602001908152602001600020600301549050919050565b600061045988610b9f565b60ff161415610494576040517f6912853800000000000000000000000000000000000000000000000000000000815260040160405180910390fd5b60056000888152602001908152602001600020600087815260200190815260200160002060009054906101000a900460ff16156104fd576040517f9bc158f800000000000000000000000000000000000000000000000000000000815260040160405180910390fd5b600061050888610bcc565b9050600061051882898989611170565b905080610551576040517f09bde33900000000000000000000000000000000000000000000000000000000815260040160405180910390fd5b61055b898961136a565b8473ffffffffffffffffffffffffffffffffffffffff16897f7a5501ebf251f3742015b7d2c9141ec6d510cf239f32a40068a967f84533b49e896040516105a29190611a42565b60405180910390a3600660008673ffffffffffffffffffffffffffffffffffffffff1673ffffffffffffffffffffffffffffffffffffffff16815260200190815260200160002060405180606001604052808b815260200189815260200186868080601f016020809104026020016040519081016040528093929190818152602001838380828437600081840152601f19601f820116905080830192505050505050508152509080600181540180825580915050600190039060005260206000209060030201600090919091909150600082015181600001556020820151816001015560408201518160020190805190602001906106a1929190611870565b505050505050505050505050565b813373ffffffffffffffffffffffffffffffffffffffff166003600083815260200190815260200160002060009054906101000a900473ffffffffffffffffffffffffffffffffffffffff1673ffffffffffffffffffffffffffffffffffffffff1614610748576040517f30448fe100000000000000000000000000000000000000000000000000000000815260040160405180910390fd5b61075283836113ab565b505050565b600260205280600052604060002060009150905080546107769061201e565b80601f01602080910402602001604051908101604052809291908181526020018280546107a29061201e565b80156107ef5780601f106107c4576101008083540402835291602001916107ef565b820191906000526020600020905b8154815290600101906020018083116107d257829003601f168201915b505050505081565b823373ffffffffffffffffffffffffffffffffffffffff166003600083815260200190815260200160002060009054906101000a900473ffffffffffffffffffffffffffffffffffffffff1673ffffffffffffffffffffffffffffffffffffffff1614610890576040517f30448fe100000000000000000000000000000000000000000000000000000000815260040160405180910390fd5b61089b8484846114ff565b50505050565b60008054906101000a900473ffffffffffffffffffffffffffffffffffffffff1681565b600660205281600052604060002081815481106108e157600080fd5b9060005260206000209060030201600091509150508060000154908060010154908060020180546109119061201e565b80601f016020809104026020016040519081016040528092919081815260200182805461093d9061201e565b801561098a5780601f1061095f5761010080835404028352916020019161098a565b820191906000526020600020905b81548152906001019060200180831161096d57829003601f168201915b5050505050905083565b813373ffffffffffffffffffffffffffffffffffffffff166003600083815260200190815260200160002060009054906101000a900473ffffffffffffffffffffffffffffffffffffffff1673ffffffffffffffffffffffffffffffffffffffff1614610a2d576040517f30448fe100000000000000000000000000000000000000000000000000000000815260040160405180910390fd5b816003600085815260200190815260200160002060006101000a81548173ffffffffffffffffffffffffffffffffffffffff021916908373ffffffffffffffffffffffffffffffffffffffff1602179055508173ffffffffffffffffffffffffffffffffffffffff16837fac241c2cb32813b72f0a01f5df11e38f61dce7a468672358ef189ff65c7949ba60405160405180910390a3505050565b813373ffffffffffffffffffffffffffffffffffffffff166003600083815260200190815260200160002060009054906101000a900473ffffffffffffffffffffffffffffffffffffffff1673ffffffffffffffffffffffffffffffffffffffff1614610b61576040517f30448fe100000000000000000000000000000000000000000000000000000000815260040160405180910390fd5b610b6b8383611613565b505050565b600060046000848152602001908152602001600020600083815260200190815260200160002054905092915050565b60006001600083815260200190815260200160002060000160009054906101000a900460ff169050919050565b600060016000838152602001908152602001600020600101549050919050565b60036020528060005260406000206000915054906101000a900473ffffffffffffffffffffffffffffffffffffffff1681565b600060016000838152602001908152602001600020600201549050919050565b610c476118f6565b60006001600085815260200190815260200160002073__$4c2cba6680386d05354b71d5a44411cc21$__63902ad6a39091856040518363ffffffff1660e01b8152600401610c96929190612066565b6104006040518083038186803b158015610caf57600080fd5b505af4158015610cc3573d6000803e3d6000fd5b505050506040513d601f19601f82011682018060405250810190610ce791906121d0565b9050610cf16118f6565b60005b600a60ff168160ff161015610d5057828160ff1660208110610d1957610d186121fe565b5b6020020151828260ff16600a8110610d3457610d336121fe565b5b6020020181815250508080610d489061225c565b915050610cf4565b50809250505092915050565b60006001600084815260200190815260200160002073__$4c2cba6680386d05354b71d5a44411cc21$__632bca89529091846040518363ffffffff1660e01b8152600401610dab929190612066565b60206040518083038186803b158015610dc357600080fd5b505af4158015610dd7573d6000803e3d6000fd5b505050506040513d601f19601f82011682018060405250810190610dfb9190612286565b905092915050565b610e0b61174c565b3360036000600754815260200190815260200160002060006101000a81548173ffffffffffffffffffffffffffffffffffffffff021916908373ffffffffffffffffffffffffffffffffffffffff16021790555081816002600060075481526020019081526020016000209190610e83929190611919565b506007547fa27df82d27a5b2a66bcd0c6210f8024283ed1197a6d8e30372f8df2e487c376e600260006007548152602001908152602001600020604051610eca9190612348565b60405180910390a23373ffffffffffffffffffffffffffffffffffffffff166007547fac241c2cb32813b72f0a01f5df11e38f61dce7a468672358ef189ff65c7949ba60405160405180910390a3600160076000828254610f2b919061236a565b925050819055505050565b610f3e6118f6565b60006001600085815260200190815260200160002073__$4c2cba6680386d05354b71d5a44411cc21$__630ba62cdc9091856040518363ffffffff1660e01b8152600401610f8d929190612066565b6104006040518083038186803b158015610fa657600080fd5b505af4158015610fba573d6000803e3d6000fd5b505050506040513d601f19601f82011682018060405250810190610fde91906121d0565b9050610fe86118f6565b60005b600a60ff168160ff16101561104757828160ff16602081106110105761100f6121fe565b5b6020020151828260ff16600a811061102b5761102a6121fe565b5b602002018181525050808061103f9061225c565b915050610feb565b50809250505092915050565b61105b6118f6565b60006001600085815260200190815260200160002073__$4c2cba6680386d05354b71d5a44411cc21$__635778aa5e9091856040518363ffffffff1660e01b81526004016110aa929190612066565b6104006040518083038186803b1580156110c357600080fd5b505af41580156110d7573d6000803e3d6000fd5b505050506040513d601f19601f820116820180604052508101906110fb91906121d0565b90506111056118f6565b60005b600a60ff168160ff16101561116457828160ff166020811061112d5761112c6121fe565b5b6020020151828260ff16600a8110611148576111476121fe565b5b602002018181525050808061115c9061225c565b915050611108565b50809250505092915050565b60008060009054906101000a900473ffffffffffffffffffffffffffffffffffffffff1673ffffffffffffffffffffffffffffffffffffffff166311479fea6040518060400160405280856000600881106111ce576111cd6121fe565b5b60200201358152602001856001600881106111ec576111eb6121fe565b5b6020020135815250604051806040016040528060405180604001604052808860026008811061121e5761121d6121fe565b5b602002013581526020018860036008811061123c5761123b6121fe565b5b60200201358152508152602001604051806040016040528088600460088110611268576112676121fe565b5b6020020135815260200188600560088110611286576112856121fe565b5b60200201358152508152506040518060400160405280876006600881106112b0576112af6121fe565b5b60200201358152602001876007600881106112ce576112cd6121fe565b5b602002013581525060405180606001604052808b81526020018a8152602001898152506040518563ffffffff1660e01b815260040161131094939291906125c6565b60206040518083038186803b15801561132857600080fd5b505afa15801561133c573d6000803e3d6000fd5b505050506040513d601f19601f820116820180604052508101906113609190612645565b9050949350505050565b600160056000848152602001908152602001600020600083815260200190815260200160002060006101000a81548160ff0219169083151502179055505050565b60006113b683610b9f565b60ff1614156113f1576040517f6912853800000000000000000000000000000000000000000000000000000000815260040160405180910390fd5b6000600160008481526020019081526020016000206003015490506001600084815260200190815260200160002073__$4c2cba6680386d05354b71d5a44411cc21$__63168703fa9091846040518363ffffffff1660e01b8152600401611459929190612066565b60006040518083038186803b15801561147157600080fd5b505af4158015611485573d6000803e3d6000fd5b50505050806004600085815260200190815260200160002060008481526020019081526020016000208190555060006114bd84610bcc565b9050837f03fd27265b7dd1f55558bedc22a58fa3b10afb1be776e614bd5a7ba7b949940684836040516114f1929190612672565b60405180910390a250505050565b600061150a84610b9f565b60ff161415611545576040517f6912853800000000000000000000000000000000000000000000000000000000815260040160405180910390fd5b6001600084815260200190815260200160002073__$4c2cba6680386d05354b71d5a44411cc21$__63a453d4ed909184846040518463ffffffff1660e01b81526004016115949392919061269b565b60006040518083038186803b1580156115ac57600080fd5b505af41580156115c0573d6000803e3d6000fd5b5050505060006115cf84610bcc565b9050837f37b531c4116aa175e1dc4d58384383843c203838d104c450c2494d808181c391848484604051611605939291906126d2565b60405180910390a250505050565b600061161e83610b9f565b60ff161415611659576040517f6912853800000000000000000000000000000000000000000000000000000000815260040160405180910390fd5b60006004600084815260200190815260200160002060008381526020019081526020016000205490506001600084815260200190815260200160002073__$4c2cba6680386d05354b71d5a44411cc21$__63b04da6c99091836040518363ffffffff1660e01b81526004016116cf929190612066565b60006040518083038186803b1580156116e757600080fd5b505af41580156116fb573d6000803e3d6000fd5b50505050600061170a84610bcc565b9050837fe270325ded177064d7bda473e6519ef40a291058c41286f71a6e4872f1e9ab5c848360405161173e929190612672565b60405180910390a250505050565b7f30644e72e131a029b85045b68181585d2833e84879b9709143e1f593f0000001600754106117a7576040517f11467ca600000000000000000000000000000000000000000000000000000000815260040160405180910390fd5b60006117b4600754610b9f565b60ff16146117ee576040517fe665d5e200000000000000000000000000000000000000000000000000000000815260040160405180910390fd5b60016000600754815260200190815260200160002073__$4c2cba6680386d05354b71d5a44411cc21$__63276cdd0c9091600a6040518363ffffffff1660e01b815260040161183e929190612718565b60006040518083038186803b15801561185657600080fd5b505af415801561186a573d6000803e3d6000fd5b50505050565b82805461187c9061201e565b90600052602060002090601f01602090048101928261189e57600085556118e5565b82601f106118b757805160ff19168380011785556118e5565b828001600101855582156118e5579182015b828111156118e45782518255916020019190600101906118c9565b5b5090506118f2919061199f565b5090565b604051806101400160405280600a90602082028036833780820191505090505090565b8280546119259061201e565b90600052602060002090601f016020900481019282611947576000855561198e565b82601f1061196057803560ff191683800117855561198e565b8280016001018555821561198e579182015b8281111561198d578235825591602001919060010190611972565b5b50905061199b919061199f565b5090565b5b808211156119b85760008160009055506001016119a0565b5090565b6000604051905090565b600080fd5b600080fd5b6000819050919050565b6119e3816119d0565b81146119ee57600080fd5b50565b600081359050611a00816119da565b92915050565b600060208284031215611a1c57611a1b6119c6565b5b6000611a2a848285016119f1565b91505092915050565b611a3c816119d0565b82525050565b6000602082019050611a576000830184611a33565b92915050565b600080fd5b600081905082602060080282011115611a7e57611a7d611a5d565b5b92915050565b600073ffffffffffffffffffffffffffffffffffffffff82169050919050565b6000611aaf82611a84565b9050919050565b611abf81611aa4565b8114611aca57600080fd5b50565b600081359050611adc81611ab6565b92915050565b600080fd5b600080fd5b60008083601f840112611b0257611b01611ae2565b5b8235905067ffffffffffffffff811115611b1f57611b1e611ae7565b5b602083019150836001820283011115611b3b57611b3a611a5d565b5b9250929050565b60008060008060008060006101a0888a031215611b6257611b616119c6565b5b6000611b708a828b016119f1565b9750506020611b818a828b016119f1565b9650506040611b928a828b016119f1565b9550506060611ba38a828b01611a62565b945050610160611bb58a828b01611acd565b93505061018088013567ffffffffffffffff811115611bd757611bd66119cb565b5b611be38a828b01611aec565b925092505092959891949750929550565b60008060408385031215611c0b57611c0a6119c6565b5b6000611c19858286016119f1565b9250506020611c2a858286016119f1565b9150509250929050565b600081519050919050565b600082825260208201905092915050565b60005b83811015611c6e578082015181840152602081019050611c53565b83811115611c7d576000848401525b50505050565b6000601f19601f8301169050919050565b6000611c9f82611c34565b611ca98185611c3f565b9350611cb9818560208601611c50565b611cc281611c83565b840191505092915050565b60006020820190508181036000830152611ce78184611c94565b905092915050565b600080600060608486031215611d0857611d076119c6565b5b6000611d16868287016119f1565b9350506020611d27868287016119f1565b9250506040611d38868287016119f1565b9150509250925092565b6000819050919050565b6000611d67611d62611d5d84611a84565b611d42565b611a84565b9050919050565b6000611d7982611d4c565b9050919050565b6000611d8b82611d6e565b9050919050565b611d9b81611d80565b82525050565b6000602082019050611db66000830184611d92565b92915050565b60008060408385031215611dd357611dd26119c6565b5b6000611de185828601611acd565b9250506020611df2858286016119f1565b9150509250929050565b6000606082019050611e116000830186611a33565b611e1e6020830185611a33565b8181036040830152611e308184611c94565b9050949350505050565b60008060408385031215611e5157611e506119c6565b5b6000611e5f858286016119f1565b9250506020611e7085828601611acd565b9150509250929050565b600060ff82169050919050565b611e9081611e7a565b82525050565b6000602082019050611eab6000830184611e87565b92915050565b611eba81611aa4565b82525050565b6000602082019050611ed56000830184611eb1565b92915050565b6000600a9050919050565b600081905092915050565b6000819050919050565b611f04816119d0565b82525050565b6000611f168383611efb565b60208301905092915050565b6000602082019050919050565b611f3881611edb565b611f428184611ee6565b9250611f4d82611ef1565b8060005b83811015611f7e578151611f658782611f0a565b9650611f7083611f22565b925050600181019050611f51565b505050505050565b600061014082019050611f9c6000830184611f2f565b92915050565b60008060208385031215611fb957611fb86119c6565b5b600083013567ffffffffffffffff811115611fd757611fd66119cb565b5b611fe385828601611aec565b92509250509250929050565b7f4e487b7100000000000000000000000000000000000000000000000000000000600052602260045260246000fd5b6000600282049050600182168061203657607f821691505b6020821081141561204a57612049611fef565b5b50919050565b8082525050565b612060816119d0565b82525050565b600060408201905061207b6000830185612050565b6120886020830184612057565b9392505050565b7f4e487b7100000000000000000000000000000000000000000000000000000000600052604160045260246000fd5b6120c782611c83565b810181811067ffffffffffffffff821117156120e6576120e561208f565b5b80604052505050565b60006120f96119bc565b905061210582826120be565b919050565b600067ffffffffffffffff8211156121255761212461208f565b5b602082029050919050565b60008151905061213f816119da565b92915050565b60006121586121538461210a565b6120ef565b9050806020840283018581111561217257612171611a5d565b5b835b8181101561219b57806121878882612130565b845260208401935050602081019050612174565b5050509392505050565b600082601f8301126121ba576121b9611ae2565b5b60206121c7848285612145565b91505092915050565b600061040082840312156121e7576121e66119c6565b5b60006121f5848285016121a5565b91505092915050565b7f4e487b7100000000000000000000000000000000000000000000000000000000600052603260045260246000fd5b7f4e487b7100000000000000000000000000000000000000000000000000000000600052601160045260246000fd5b600061226782611e7a565b915060ff82141561227b5761227a61222d565b5b600182019050919050565b60006020828403121561229c5761229b6119c6565b5b60006122aa84828501612130565b91505092915050565b60008190508160005260206000209050919050565b600081546122d58161201e565b6122df8186611c3f565b945060018216600081146122fa576001811461230c5761233f565b60ff198316865260208601935061233f565b612315856122b3565b60005b8381101561233757815481890152600182019150602081019050612318565b808801955050505b50505092915050565b6000602082019050818103600083015261236281846122c8565b905092915050565b6000612375826119d0565b9150612380836119d0565b9250827fffffffffffffffffffffffffffffffffffffffffffffffffffffffffffffffff038211156123b5576123b461222d565b5b828201905092915050565b600060029050919050565b600081905092915050565b6000819050919050565b6000602082019050919050565b6123f6816123c0565b61240081846123cb565b925061240b826123d6565b8060005b8381101561243c5781516124238782611f0a565b965061242e836123e0565b92505060018101905061240f565b505050505050565b600060029050919050565b600081905092915050565b6000819050919050565b600081905092915050565b612478816123c0565b6124828184612464565b925061248d826123d6565b8060005b838110156124be5781516124a58782611f0a565b96506124b0836123e0565b925050600181019050612491565b505050505050565b60006124d2838361246f565b60408301905092915050565b6000602082019050919050565b6124f481612444565b6124fe818461244f565b92506125098261245a565b8060005b8381101561253a57815161252187826124c6565b965061252c836124de565b92505060018101905061250d565b505050505050565b600060039050919050565b600081905092915050565b6000819050919050565b6000602082019050919050565b61257881612542565b612582818461254d565b925061258d82612558565b8060005b838110156125be5781516125a58782611f0a565b96506125b083612562565b925050600181019050612591565b505050505050565b6000610160820190506125dc60008301876123ed565b6125e960408301866124eb565b6125f660c08301856123ed565b61260461010083018461256f565b95945050505050565b60008115159050919050565b6126228161260d565b811461262d57600080fd5b50565b60008151905061263f81612619565b92915050565b60006020828403121561265b5761265a6119c6565b5b600061266984828501612630565b91505092915050565b60006040820190506126876000830185611a33565b6126946020830184611a33565b9392505050565b60006060820190506126b06000830186612050565b6126bd6020830185612057565b6126ca6040830184612057565b949350505050565b60006060820190506126e76000830186611a33565b6126f46020830185611a33565b6127016040830184611a33565b949350505050565b61271281611e7a565b82525050565b600060408201905061272d6000830185612050565b61273a6020830184612709565b939250505056fea2646970667358221220d0a4a55723bb84391ace1b67d60af9acc290cda04aa4592394f64f64ccb79cbb64736f6c63430008090033",
  "linkReferences": {
    "contracts/IncrementalBinaryTree.sol": {
      "IncrementalBinaryTree": [
        {
          "length": 20,
          "start": 3469
        },
        {
          "length": 20,
          "start": 3746
        },
        {
          "length": 20,
          "start": 4228
        },
        {
          "length": 20,
          "start": 4513
        },
        {
          "length": 20,
          "start": 5456
        },
        {
          "length": 20,
          "start": 5769
        },
        {
          "length": 20,
          "start": 6086
        },
        {
          "length": 20,
          "start": 6452
        }
      ]
    }
  },
  "deployedLinkReferences": {
    "contracts/IncrementalBinaryTree.sol": {
      "IncrementalBinaryTree": [
        {
          "length": 20,
          "start": 3166
        },
        {
          "length": 20,
          "start": 3443
        },
        {
          "length": 20,
          "start": 3925
        },
        {
          "length": 20,
          "start": 4210
        },
        {
          "length": 20,
          "start": 5153
        },
        {
          "length": 20,
          "start": 5466
        },
        {
          "length": 20,
          "start": 5783
        },
        {
          "length": 20,
          "start": 6149
        }
      ]
    }
  }
}